{
  "contractName": "Registry",
  "abi": [
    {
      "inputs": [
        {
          "name": "",
          "type": "address"
        }
      ],
      "payable": false,
      "stateMutability": "view",
      "type": "function",
      "constant": true,
      "name": "table",
      "outputs": [
        {
          "name": "",
          "type": "bytes32"
        }
      ]
    },
    {
      "constant": true,
      "inputs": [
        {
          "name": "addr",
          "type": "address"
        }
      ],
      "name": "getName",
      "outputs": [
        {
          "name": "",
          "type": "bytes32"
        }
      ],
      "payable": false,
      "stateMutability": "view",
      "type": "function"
    },
    {
      "constant": false,
      "inputs": [
        {
          "name": "name",
          "type": "bytes32"
        }
      ],
      "name": "register",
      "outputs": [
        {
          "name": "",
          "type": "bool"
        }
      ],
      "payable": false,
      "stateMutability": "nonpayable",
      "type": "function"
    },
    {
      "inputs": [],
      "payable": false,
      "stateMutability": "nonpayable",
      "type": "constructor"
    }
  ],
  "bytecode": "0x6060604052341561000f57600080fd5b61027a8061001e6000396000f300606060405260043610610057576000357c0100000000000000000000000000000000000000000000000000000000900463ffffffff16806301042a061461005c5780635fd4b08a146100b1578063e1fa8e8414610106575b600080fd5b341561006757600080fd5b610093600480803573ffffffffffffffffffffffffffffffffffffffff16906020019091905050610145565b60405180826000191660001916815260200191505060405180910390f35b34156100bc57600080fd5b6100e8600480803573ffffffffffffffffffffffffffffffffffffffff1690602001909190505061015d565b60405180826000191660001916815260200191505060405180910390f35b341561011157600080fd5b61012b6004808035600019169060200190919050506101a5565b604051808215151515815260200191505060405180910390f35b60006020528060005260406000206000915090505481565b60008060008373ffffffffffffffffffffffffffffffffffffffff1673ffffffffffffffffffffffffffffffffffffffff168152602001908152602001600020549050919050565b6000806001026000803373ffffffffffffffffffffffffffffffffffffffff1673ffffffffffffffffffffffffffffffffffffffff1681526020019081526020016000205460001916141561024457816000803373ffffffffffffffffffffffffffffffffffffffff1673ffffffffffffffffffffffffffffffffffffffff168152602001908152602001600020816000191690555060019050610249565b600090505b9190505600a165627a7a723058203ae0eb00299342fc2bc3472a59f06114ed55902de5888e8206d87cf9f2ad66350029",
  "source": "pragma solidity ^0.4.4;\n\ncontract Registry {\n    //maps each Ethereum address to a name\n    // CAN USE A STRUCT!!!!! NOTE\n    mapping (address => bytes32) public table;\n        \n    //Constructor doesn't do anything\n    function Registry() public {\n    }\n    \n    /* --- PUBLIC FUNCTIONS --- */\n    function register(bytes32 name) public returns (bool){\n        if(table[msg.sender] == 0){\n            table[msg.sender] = name;\n            return true;\n        }\n        return false;\n    }\n    \n    //returns the name of the nth candidate corresponding to a given address\n    function getName(address addr) public view returns (bytes32){\n        return table[addr];\n    }\n}",
  "sourcePath": "/Users/michaelzman/Documents/workspace/DAS/contracts/Registry.sol",
  "compiler": {
    "name": "solc",
    "version": "0.4.18+commit.9cf6e910.Emscripten.clang"
  },
  "schemaVersion": "1.0.1",
  "updatedAt": "2018-03-31T00:37:16.601Z"
}